:020000040800F2
:10000000180E0020D101000851340008752C00089A
:100010004D3400081D0B0008913500080000000059
:10002000000000000000000000000000793500081A
:10003000210B000800000000553400087D35000841
:10004000EB010008EB010008EB010008EB010008E0
:10005000EB010008EB010008EB010008EB010008D0
:10006000EB010008EB010008EB010008EB010008C0
:10007000EB010008EB010008EB010008EB010008B0
:10008000EB010008EB010008EB010008EB010008A0
:10009000EB010008EB010008EB010008EB01000890
:1000A000EB010008EB010008EB010008EB01000880
:1000B000EB010008EB01000885350008EB010008A2
:1000C000EB010008EB010008EB010008EB01000860
:1000D000EB010008EB010008EB010008EB01000850
:1000E000EB010008EB010008EB01000800F002F84A
:1000F00000F05FF814A696E8000CB244B344DA4569
:1001000001D100F056F8BAE80F000FA696E83000CB
:10011000A5EB040504EB0607AAEB0704A7F101070A
:100120004FEA15154FEA3414A4F10104AC4201D38F
:1001300000F03FF813F0010F18BFFB1A43F0010362
:1001400000F001F8DBE71847B8580000D858000065
:10015000103A24BF78C878C1FAD8520724BF30C8F3
:1001600030C144BF04680C60704700007047000055
:100170000023002400250026103A28BF78C1FBD8B0
:10018000520728BF30C148BF0B607047662904F092
:10019000DE87002070471FB500F04AFB04000020F6
:1001A000002104F003FDE06000F000F91FBD10B570
:1001B00010BD00F03DFC1146FFF7EDFF03F040FDE0
:1001C00000F05BFC03B4FFF7F2FF03BC00F0A0FCFF
:1001D0000948804709480047FEE7FEE7FEE7FEE7DB
:1001E000FEE7FEE7FEE7FEE7FEE7FEE70448054917
:1001F000054A064B7047000081350008ED000008F5
:1002000018080020180E0020180A0020180A0020E4
:100210000FB41CB5074B06AA7B44694600900598AD
:1002200000F0EDFA0020694600F0FCFA1CBC5DF815
:1002300014FB0000090600002DE9F0474FF0000A0A
:1002400089460446C0F820A02046E1688847002877
:1002500076D0252806D0D4E901219047206A401C99
:100260002062F1E7E168204600258847C4F81CA019
:1002700006460027C4F818A02A2E09D0304604F0FC
:100280008DFC38B304EB8708303EC8F8186019E0DD
:1002900059F8041B204604EB87029161E168884706
:1002A000012F064618D1E069002820DA25F0200544
:1002B0001DE0D8F8180000EB800006EB4000303855
:1002C000C8F818002046E1688847064604F066FC36
:1002D0000028EED1012F0AD02E2E08D12046E16849
:1002E00088477F1C0646022F45F02005C4DBA06925
:1002F000002803DA404245F00105A061E80701D07B
:1003000025F01005B6B1A6F14100192802D8203613
:1003100045F400654A463146204625604D46FFF7C4
:1003200035FF58B1012806D0ED1D25F0070000F17A
:10033000080989E704E005F1040985E730468AE702
:10034000206ABDE8F08702F0FF0343EA032242EA95
:10035000024200F002B84FF0000200B51346944686
:100360009646203922BFA0E80C50A0E80C50B1F10D
:100370002001BFF4F7AF090728BFA0E80C5048BF21
:100380000CC05DF804EB890028BF40F8042B08BFBF
:10039000704748BF20F8022B11F0804F18BF00F8BB
:1003A000012B7047704770477047000008487CB5C4
:1003B0007844009007487844009C0546019004E08A
:1003C0002046016808448047241DAC42F8D17CBD1A
:1003D00088560000865600002DE9FF4F0C461E4649
:1003E0004FF0FF378BB0D2E90001DDF860800A9052
:1003F0008A46C1F30A5505B93D46002108464FF02B
:100400000000BAF1000F00F4400005DA00EB8000B4
:100410004FF4400101EA50004FEA9059B9F1010F41
:1004200000DDB9460A9850EA4A000ED044F6105052
:10043000A5F2FF3545432F14B8F1000F1ED07542C9
:10044000291E1EDDC9F100021CE0B8F1010F4FF0BA
:10045000000001D0302103E0F24305E02154401CAC
:10046000B042FBDB30460022002121540B99C1F839
:100470000880C1E900200FB0BDE8F08FBD1B6D1CE6
:10048000DEE74A4600DA694206A800F05BFA06ABEE
:1004900093E8070003AB83E8070050460A9903F08E
:1004A000A0FF8DE80700A0F500501F3800900398CA
:1004B000002D0ADD42F21F014A460844002303A929
:1004C0000390684604F00AFA09E0A0F500504A4695
:1004D0001F38002303A90390684604F014FA8DE83E
:1004E00007000004000C03D04FF0FF30410800E08B
:1004F0001046B8F1000F03D00022009215461EE00E
:10050000751E05D400F098F9303262556D1EF9D58C
:10051000B3460122084302D000227F1C04E0207869
:10052000302801D100227F1E002A099784D01DE0C7
:10053000112D07DA00F080F9303262556D1C50EA57
:100540000102F5D1084302D00098C8B10EE00021A5
:10055000681E05E0235C625C63542254401E491C03
:100560008142F7DBAB46A81B401E0990002004F82F
:100570000B000B98099AC0F80880C0E9002B7AE7B5
:1005800011264FF0000857E72DE9F04F8846044642
:10059000D21D22F0070191B0D1E90001CDE90A0195
:1005A00004F0E8FA02460B98C00F01D02D2007E0B6
:1005B0002068810701D52B2002E0202101EAC0003C
:1005C000032A099001D0072A05DB0346414620464D
:1005D00000F078F90BE12078800601D5E06900E0B1
:1005E0000620B8F1650F814606D0B8F1660F18D025
:1005F000B8F1670F70D131E00020B9F1110F009010
:1006000001DB112301E009F101030AAA01A90CA8E9
:10061000FFF7E2FEDDE90C70002609F101058346D3
:1006200047E001204B4600904FF000470AAA01A97D
:100630000CA8FFF7D1FEDDE90DB00C995D46002650
:1006400010B909F101000D18B9EB050003D4C0F190
:10065000FF3609F10105A5EB09002BE0B9F1010F07
:1006600001DA4FF001090020B9F1110F009048465E
:1006700001DD112300E003460AAA01A90CA8FFF737
:10068000ABFEDDE90C704D4600268346207800075E
:100690000AD4AB4500DA5D4601A8012D04DD4119FD
:1006A00011F8011C302907D04F4502DA17F1040F69
:1006B00004DA012082460FE06D1EEEE7002F02DC17
:1006C000ED1B3E4403E0781CA84200DD7D1CB81BF6
:1006D00000F1010A4FF000472078000703D4AA4533
:1006E00001DB4FF0FF3A0021B7F1004F0DF1430855
:1006F0008DF8431024D002202B23002F01DA7F42F3
:100700002D230A21021EA0F1010000DC5FB197FB3E
:10071000F1FC97FBF1F201FB1C7C17460CF1300C4D
:1007200008F801CDEEE7A8F1010003702188090562
:1007300001D5452100E06521A0F1010800F8011C68
:1007400009980FA9A1EB0807FF1D00B1012041196D
:1007500001EBEA70A1693844081A401EA0612078B4
:10076000C00602D42046AFF30080099828B1D4E92E
:1007700001219047206A401C20622078C00622D5C3
:100780002046AFF300801EE0002E04DBB34502DDFF
:1007900001A8805D00E03020D4E901219047206A63
:1007A000401C2062761CAAF101005FEA000A0AD10F
:1007B00000F03EF8C0680168405CD4E90121904730
:1007C000206A401C2062281EA5F10105DCDC07E040
:1007D000D4E9012118F8010B9047206A401C2062DF
:1007E000381EA7F10107F3DC2046AFF30080032099
:1007F00011B041E601694A1C02610878704700B5F2
:100800008FB0CDE901310021059105497944CDE949
:10081000031011466846FFF70FFD0FB000BD000042
:10082000E5FFFFFF0A6802F8010B0A60704700004D
:1008300000487047A800002030B5B0F10A0271F1FD
:1008400000034FEA900E4EEA817EB0EB0E0061EBA2
:1008500091014FEA101E4EEA017E10EB0E0041EBB3
:1008600011114FEA102E4EEA016E10EB0E0041EB13
:1008700011214FEA104E4EEA014E10EB0E0041EBF3
:100880001141401841F100014FEAD00040EA4170A7
:100890004FEAD1014FEA810444EA907410EB8005DD
:1008A00044EB01046D1944EB0404521BA3414FF0C7
:1008B000000348BF0A3200D530BD401C41F10001A1
:1008C00030BD00002DE9F0411F46044603260168B3
:1008D000072A01F4006004DB08B116A505E016A59F
:1008E00003E008B115A500E015A521F01000206077
:1008F000A069C01EA0610FB1401EA0612046AFF3E9
:1009000000804FB1D4E9012138469047206A401C4D
:100910002062C01C206206E0206AFAE7D4E90121C7
:1009200015F8010B9047761EF8D22046AFF30080F1
:10093000BDE8F0814E414E006E616E00494E4600AA
:10094000696E66002DE9F047814616468AB0354843
:1009500078440DC88DE80D0032487844801C03AC03
:100960000DC884E80D0041F69B300844372190FB08
:10097000F1F290FBF1F5A5F1800501FB12041B3C9F
:1009800002D56442012000E00020DFF898A08046F4
:100990000027FA44AAF1BE0A0EE0E0070AD0324668
:1009A000684607EB470101230AEB810103F0ABFF27
:1009B0008DE8070064107F1C002CEED1194F7F4496
:1009C000AE3F19E0E80715D007EB04100DF1180A47
:1009D00090E80E008AE80E00C068F04201D1981934
:1009E00008903246012306A903A803F08CFF03AB4D
:1009F00083E807006D10641C002DE3D14FF0010364
:100A000032466946B8F1000F03A802D003F066FF32
:100A100001E003F078FFC9E90001C9F808200AB035
:100A2000BDE8F0877C48000000487047880000203F
:100A30007546FFF7F9FFAE4605006946534620F0BC
:100A40000700854618B020B5FFF7D0FBBDE8204071
:100A50004FF000064FF000074FF000084FF0000B7A
:100A6000AC46ACE8C009ACE8C009ACE8C009ACE8E9
:100A7000C00921F007018D46704710B50446AFF359
:100A800000802046BDE81040FFF79CBB4FF0013CC2
:100A900050F8042B51F8043B9A4221D1A2EB0C03ED
:100AA000934313EACC1317D150F8042B51F8043BAD
:100AB0009A4215D1A2EB0C03934313EACC130BD14A
:100AC00050F8042B51F8043B9A4209D1A2EB0C03D5
:100AD000934313EACC13DBD04FF00000704700BF04
:100AE000D01A01BAB1FA81F101F0180122FA01F02D
:100AF000CB40DBB2C0B2C01AC1F120012CFA01F325
:100B0000D11A914311EAC311E6D170477047000032
:100B100001491820ABBEFEE726000200FEE70000F8
:100B200070470000EFF3108072B600BFFEE70000D0
:100B3000B0B5044600F024F9054640F20000C2F2C8
:100B400000000078611C18BF044400BF00F018F9D1
:100B5000401BA042FAD3B0BD2DE9F04F82B00E6821
:100B6000002E00F0FD8041F20042C4F20102042395
:100B700040F2004E904208BF03234FF6FF7CC4F2C0
:100B8000010E009300240123C1F2100C4FF0000A63
:100B90004FF000094BE000BF41F20002C4F2010235
:100BA000009F904208BF022704F00C030F229A40D6
:100BB0002BEA020207FA03F34FEA9A051A4346F8B2
:100BC00025204E6840F20C45F202DEF8082054BFA2
:100BD00022EA080242EA0802C4F20105CEF808201F
:100BE0002A68B30254BF22EA080242EA08022A60D5
:100BF000B303DEF8042054BF22EA080242EA0802E6
:100C0000F303CEF80420DEF800204FF0010354BFB8
:100C100022EA080242EA0802CEF800200E680AF131
:100C2000010A36FA0AF204F1040400F0998003FA8A
:100C30000AFB16EA0B08F1D04E68664512DC122E4C
:100C400056D8DFE806F0350B4D49555555555555E5
:100C50005555555555555545510000BFD1F80C9087
:100C600046E000BF4FF6FF72C1F2210296420FDC50
:100C70000022C1F2110296421AD00022C1F21202E1
:100C8000964215D00022C1F22102964210D02FE0E8
:100C90000022C1F2220296420AD00022C1F23102A1
:100CA000964205D00022C1F23202964220D100BF06
:100CB0008A684AB1012A14BFC0F814B0C0F810B055
:100CC0004FF0080914E000BF4FF0040910E000BF26
:100CD000CA6802F104090BE04FF0000908E000BF08
:100CE000CA6802F1080903E0CA6802F10C0900BFF2
:100CF00002462646B8F5807F24BF0432203E17689E
:100D00000F25B54027EA050509FA06F635431560B3
:100D1000CA79D2067FF582AF41F21803C4F202030A
:100D20001A68AEF57E7642F001021A601A6802F087
:100D300001020192019A2AF0030256F802B040F62D
:100D40000002C4F20102904208D040F60042C4F210
:100D5000010290427FF420AF012725E7002723E717
:100D600002B0BDE8F08F00008068084018BF012085
:100D700070470000002A08BF0904016170470000A5
:100D800040F61400C2F2000000687047002804BF5B
:100D900001207047F0B581B0044690F83D0028B9B5
:100DA000002084F83C00204600F050F9242084F80C
:100DB0003D002068016821F001010160016841F4F3
:100DC00000410160016821F40041016000F008FB6E
:100DD000636848F2A16CC0F2010C40F60011C0F249
:100DE0003D0163453CBF48F28041C0F21E0188428C
:100DF00002D2012001B0F0BD4DF68361C4F21B3177
:100E0000A0FB01122168970CD1F804E04FF496760C
:100E10002EF03F0545EA92454D60774348F6381677
:100E20000D6AC0F24106A7FB067625F03F07634531
:100E300038BF960C721C3A430A62CA6948F2A0662F
:100E40004CF6FF77C0F20106B34222EA07020BD844
:100E500001385B00B0FBF3F001306FF31F30042862
:100E600098BF04201BE000BFA768013857B11927BD
:100E70007B43B0FBF3F001306FF31F3070B100F52E
:100E8000804007E003EB4303B0FBF3F001306FF366
:100E90001F3018B100F5004001E000BF01201043F1
:100EA000C8610868D4E9072320F0C0001043184344
:100EB0000860886848F2FF3204F10C0790438CCF39
:100EC00018431043A6698860C86820F0FF003843C3
:100ED0003043C860086840F001000860002020210D
:100EE000206484F83D10206384F83E0001B0F0BD1A
:100EF0002DE9F04383B0994616460F460446FFF7A6
:100F00003FFF94F83D10202924D10546206800BFFA
:100F1000816989071AD5FFF733FF411B20681A2919
:100F2000F6D381698907F3D500202021206384F856
:100F30003D1084F83E00216C41F02001216484F8CA
:100F40003C00022003B0BDE8F08300BF94F83C10E1
:100F5000012903D1022003B0BDE8F083012284F807
:100F60003C200368DDE90B180A9ADB0703D103680C
:100F700043F001030360036823F40063036021204E
:100F800084F83D00402084F83E0000202064626226
:100F90006185608D394620850020CFF6FF70E062C4
:100FA000204632464B46CDE9008501F065FE18B17A
:100FB000012003B0BDE8F083208D98B9204641465A
:100FC0002A4601F0BDFE88B3206C0428F0D12068C9
:100FD000016841F400710160012003B0BDE8F083B5
:100FE0000004EBD0204641462A4602F059F800287A
:100FF000EAD1616A2268084610F8013B1361238D2B
:101000006062581E2085678D013F678557697F079D
:10101000E6D50704E4D048781061881C6062981E09
:101020002085618D01396185DAE700BF206801689C
:1010300041F400710160202084F83D00002084F814
:101040003E0084F83C0003B0BDE8F08310B586B0E4
:10105000016845F20040C4F2000081424FF00001F7
:10106000CDE90411CDE9021102D006B010BD00BFD8
:1010700041F21804C4F20204216800F5384041F03E
:1010800008012160216801F0080101910199C02146
:101090000291122103910321059102A9FFF75CFD42
:1010A000606840F400106060606800F40010019017
:1010B000019806B010BD000040F2000040F6140197
:1010C000C2F20000C2F2000100780A681044086011
:1010D0007047000080B542F20000C4F202000168CF
:1010E00041F010010160032000F08CF80F2000F0A7
:1010F00005F800F027F8002080BD000070B540F230
:101100000006C2F2000640F220013278C2F200016D
:101110004FF47A730968B3FBF2F20446B1FBF2F1C3
:10112000084600F06DFE0F2C4FF0010508D838B9C5
:101130004FF0FF3021460022002500F037F87460A0
:10114000284670BD82B041F21800C4F20200016866
:10115000022241F001010160016801F001010191E9
:101160000199416841F080514160406800F0805031
:10117000009000980420C4F20100016862F31A6133
:10118000016002B070470000002848BF704700F0BF
:101190001F01012202FA01F11C2202EAD0004EF2E4
:1011A0000012CEF2000281507047000010B54EF6DA
:1011B0000C5CCEF2000CDCF80030C3F3022E8EF093
:1011C0000704042C28BF0424BEF103034FF0FF3EA4
:1011D0000EFA04F438BF0023A14399400EFA03F33A
:1011E0009A43114300F00F0200F160430901043AF1
:1011F00003F564436244002848BF02F10C031970F0
:1012000010BD00004EF60C51CEF200010A684FF6F8
:10121000FF031A4060F30A2242F0806040F0FD7044
:1012200008607047002804BF012070472DE9F04393
:1012300081B042F20008C4F202080446D8F8000067
:101240000D4600F0070081420CD9D8F8000020F0CC
:1012500007002843C8F80000D8F8000000F0070095
:10126000A8426CD1206841F204098107C4F2020946
:1012700017D5410705D5D9F8001041F4E061C9F848
:101280000010010705D5D9F8001041F46051C9F8E4
:101290000010D9F80010A26821F0F0011143C9F83C
:1012A0000010C00742D1D8F8000000F007008542C6
:1012B0000CD2D8F8000020F007002843C8F800003E
:1012C000D8F8000000F00700A84238D12068410794
:1012D00007D5D9F80010E26821F4E0611143C9F89C
:1012E0000010000708D5D9F80000216920F46050EB
:1012F00040EAC100C9F80000D9F8002002F00C0053
:10130000082841F20020C0F27A004DD145F67A1348
:10131000C2F38341C0F60003595CD20338D440F6CF
:101320000010C0F23D0048433EE000BF606859F83D
:10133000041C022808D0012826D1890306D40120E4
:1013400001B0BDE8F08300BF8901F8D5D9F80010DD
:1013500021F003010843C9F80000FFF711FD06461C
:1013600041F28837D9F80000616800F00C00B0EB5A
:10137000810F98D0FFF704FD801BB842F2D90320FB
:1013800001B0BDE8F08300BF8907D8D5DEE700BF14
:10139000D9F8002045F67813C2F34042C0F60003A6
:1013A0009A5C4843B0FBF2F0D9F8001045F2E8121D
:1013B000C1F30311C0F60002515C40F2200220FA92
:1013C00001F140F20400C2F200000068C2F2000223
:1013D0001160FFF793FE002001B0BDE8F08300002C
:1013E00040F2200041F20401C2F20000C4F2020106
:1013F0000068096845F2F812C1F30221C0F6000244
:10140000515CC84070470000002804BF01207047AD
:101410002DE9F04182B00446007841F20006C00791
:10142000C4F202060CD0706800F00C00042840F0F2
:1014300081803068800303D56068002800F0468111
:10144000207880071BD5706810F00C0F09D07068E9
:1014500000F00C00082840F087807068C00300F19D
:1014600083803068800703D52069012840F02E81F1
:101470003068616920F0F80040EAC10030602078EF
:10148000000713D4207840072CD4E569002D00F024
:101490001881706800F00C00082840F0A780012D2A
:1014A00040F00481012002B0BDE8F081A06900286D
:1014B00000F084800020C4F242200121C0F8801492
:1014C000FFF75EFC054600BF706A800700F1B2803E
:1014D000FFF756FC401B0228F6D9032002B0BDE8F6
:1014E000F08100BFF0695FEAC00808D4F06940F0FD
:1014F0008050F061F06900F080500090009847F251
:101500000007C4F200073868C00549D4386840F4C1
:1015100080703860FFF734FC054600BF3868C005AE
:101520003ED4FFF72DFC401B6428F7D9032002B0FE
:10153000BDE8F081706800F00C00082803D17068E5
:10154000C0033FF576AF61683068002900F00C8178
:10155000B1F5A02F00F00081B1F5803F40F01A8175
:1015600040F480301CE100BF2069002840F20000F8
:10157000C4F2422000F0888001210160FFF700FCE6
:10158000054600BF306880073FF572AFFFF7F8FBF4
:10159000401B0228F6D9032002B0BDE8F08100BF4D
:1015A000E168306A002900F09D80052900F09280F2
:1015B000012940F0AF8040F00100B1E00020C4F20A
:1015C00042200021C0F88014FFF7DAFB054600BF77
:1015D000706A80077FF556AFFFF7D2FB401B0228E9
:1015E000F6D9032002B0BDE8F08100BF0027C4F2A5
:1015F000422700203866FFF7C3FB022D05460DD1B8
:101600003068800140F1DE80FFF7BAFB401B022802
:101610004FF00300F4D902B0BDE8F08130688001DA
:101620004FD5FFF7ADFB401B02284FF00300F5D963
:10163000F1E700BF40F22000C2F20000006844F66B
:10164000D351C1F26201A0FB0101480A019000BF21
:1016500000BF0198411E002801913FF413AF00BF65
:101660000198411E002801913FF40CAF00BF019882
:10167000411E002801913FF405AF00BF0198411EB3
:1016800000280191E4D1FDE600210160FFF778FB1D
:10169000054600BF306880077FF5F1AEFFF770FBAD
:1016A000401B02284FF00300F4D9B4E77068216AA8
:1016B00000F480328A4209D1616A00F470108842D5
:1016C00004D1002002B0BDE8F08100BF012002B0CB
:1016D000BDE8F08140F004003062306A40F0010063
:1016E0001EE000BF20F001003062306A20F00400EC
:1016F0003062FFF745FB054641F28837306A8007C4
:1017000020D5FFF73DFB401BB8424FF00300F5D951
:1017100081E700BF20F001003062306A20F0040051
:101720003062FFF72DFB054641F28837306A8007AB
:1017300008D4FFF725FB401BB842F7D9032002B0BD
:10174000BDE8F081B8F1000F3FF59FAEF06920F0E1
:101750008050F06199E600BF40F48020306030682E
:1017600040F480301CE000BF20F4803030603068EE
:1017700020F480203060FFF703FB054630688003CB
:101780007FF55EAEFFF7FCFA401B64284FF00300C4
:10179000F4D940E720F480303060306820F48020B5
:1017A0003060FFF7EDFA0546306880033FF548AE3C
:1017B000FFF7E6FA401B6428F6D9032002B0BDE823
:1017C000F08100BF206AB0F5803F05D17168A26842
:1017D00021F40031114371607168626A21F474115F
:1017E00011430843706001203866FFF7C9FA0446C8
:1017F000306880013FF565AFFFF7C2FA001B022891
:101800004FF00300F4D906E770B528B1416A29B159
:1018100000210161142106E0012070BD4168B1F58D
:10182000827F02D01C21002242500026866290F85E
:10183000511029B980F85060054600F039F8284663
:10184000022180F8511090E82E0002F482720C6898
:1018500003F4044324F040040C601A4405F40063CC
:1018600005691A4405F0020345691A4405F00103AD
:101870008569C4691A4405F400731A4404F03803F6
:10188000046A1A4404F08003846A1A4304F400537F
:101890001A430A60042202EA15424A60CA6922F425
:1018A0000062CA610121466580F85110304670BD62
:1018B00070B586B040F60004C4F20104006804F577
:1018C0002051002688420596CDE90366029601D094
:1018D00006B070BD41F21800C4F20200016802AD0A
:1018E00041F480510160016801F480510191019936
:1018F000016841F0040101600068294600F004001D
:10190000019001982020029002200390032005906E
:101910002046FFF721F94020CDE90206204629465E
:101920000496FFF719F906B070BD00002DE9F041EB
:1019300082B0044690F85100012819D160681D4614
:1019400017460E46B0F5827F01D1A068A0B1FFF71F
:1019500017FA8046002E4FF0010018BF002F03D168
:1019600002B0BDE8F08100BF94F85000012811D109
:10197000022002B0BDE8F081042084F85100204626
:10198000314632463B46009500F0D0F802B0BDE843
:10199000F08100BF012084F850000420002184F869
:1019A00051006165A663A787E7872163A186E18669
:1019B000A2682068B2F5004F2164616438D00168E4
:1019C000490640D5E168E08F002944D000287BD04B
:1019D000681C0CD11BE000BFC068A16B21F8020B92
:1019E000A163E08F0138E087E08F00286CD0206889
:1019F0008168C907F0D1FFF7C3F9A0EB0800A8423E
:101A0000F2D342E0FFF7BCF9E08F00285CD02068F9
:101A10008168C907F6D0C068A16B21F8020BA163E9
:101A2000E08F0138E087E08F0028F0D14CE000BF64
:101A3000016821F040010160016821F480410160EA
:101A400001684906BED4016841F040010160E168C7
:101A5000E08F0029BAD1B8B3681C0CD124E000BFD4
:101A6000007BA16B0870A06B0130A063E08F013890
:101A7000E087E08F40B320688168C907F0D1FFF7A5
:101A80007FF9A0EB0800A842F3D3012084F85100AD
:101A9000002084F85000032002B0BDE8F08100BFB0
:101AA000FFF76EF9E08F78B120688168C907F7D039
:101AB000007BA16B0870A06B0130A063E08F013840
:101AC000E087E08F0028EFD16068B0F5827F11D108
:101AD000A068B0F5004F02D0B0F5806F0AD1216840
:101AE000B0F5806F0A6822F040020A6002D12046F9
:101AF000012101E02046802100222B46CDF8008004
:101B000001F0AAFC28B1606D40F020006065202043
:101B10006065012084F85100002084F85000606D59
:101B2000002818BF012002B0BDE8F0812DE9F04384
:101B300083B01E4615460F460446FFF721F994F878
:101B400051108146012909D1002F4FF0010018BF23
:101B5000002D0FD103B0BDE8F08300BF6068B0F581
:101B6000827F0DD104294FF00200F3D1A168002932
:101B7000EAD0EFE7002EEDD094F85000012803D111
:101B8000022003B0BDE8F083012084F8500094F8EF
:101B90005100002104281CBF052084F85100616514
:101BA000A563E687A6872763E6862068A686216464
:101BB00061640168490603D4016841F04001016095
:101BC0006168731EE268B1FA81F1B3FA83F3DDF85C
:101BD000288049095B09B2F5006F41EA030165D12C
:101BE00031B137F8021BC1602763E08E0138E0860F
:101BF000012518F1010032D102E000BFFFF7C0F863
:101C0000E08E18B9E08F002800F0B8802068816865
:101C100089070CD5E18E51B1012D08D1216B00252A
:101C200031F8022BC2602163E18E0139E1868168BF
:101C3000C907E3D0E18F0029E0D0C068A16B01257E
:101C400021F8020BA163E08F0138E087D6E700BFDF
:101C5000FFF796F8A0EB0900404580F0AF80E08EDA
:101C600018B9E08F002800F0898020688168890712
:101C70000CD5E18E51B1012D08D1216B002531F831
:101C8000022BC2602163E18E0139E1868168C907B8
:101C9000DED0E18F0029DBD0C068A16B012521F8DF
:101CA000020BA163E08F0138E087D1E739B13978C1
:101CB0000173206B01302063E08E0138E08601253E
:101CC00018F1010032D101E0FFF75AF8E08E10B9A7
:101CD000E08F002852D02068816889070ED5E18EF8
:101CE00061B1012D0AD1216B002509780173216BA7
:101CF000206801312163E18E0139E1868168C907DD
:101D0000E2D0E18F0029DFD0C068A16B0125087007
:101D1000A06B0130A063E08F0138E087D4E700BFFB
:101D2000FFF72EF8A0EB0900404547D2E08E08B936
:101D3000E08F18B32068816889070ED5E18E61B104
:101D4000012D0AD1216B002509780173216B2068D0
:101D500001312163E18E0139E1868168C907DFD055
:101D6000E18F0029DCD0C068A16B01250870A06B51
:101D70000130A063E08F0138E087D1E720460221DF
:101D800001224346CDF8009001F066FB40B92046A1
:101D9000802100224346CDF8009001F05DFBB8B1F0
:101DA000606D40F02000606520206065002084F8B0
:101DB0005000012003B0BDE8F08300BF012084F88B
:101DC0005100002084F85000032003B0BDE8F083E8
:101DD000A06838B9002002902068C168029180682C
:101DE00002900298012084F85100002084F85000ED
:101DF000606D002818BF012003B0BDE8F08300002B
:101E0000411E0020B0EB116F1CBF012070474EF245
:101E10001002CEF2000251604EF62351CEF20001C4
:101E2000F0230B700721906011607047704700002D
:101E3000704700007047000090F83C20012A4FF0E6
:101E4000020236D010B580F83D200268D2F804E0D6
:101E5000D2F808C00C682EF07003234340F2FF74E0
:101E6000C4F20004A24253600ADCB2F1804F13D0E6
:101E700040F20043C4F200039A420DD011E000BFCB
:101E800042F60043C4F201039A4205D040F6000333
:101E9000C4F200039A4204D149682CF0800319432C
:101EA00091600121002280F83D1080F83C20BDE8BF
:101EB0001040104670470000002804BF0120704702
:101EC00070B590F83D10002956D1002180F83C10E3
:101ED00042F66541C0F6000142F6694242F66D43A2
:101EE00042F2AD5CC0F60002C0F60003C0F6000C82
:101EF000C0F8801042F6DD2142F20D7542F6D92677
:101F0000C0F88420C0F88830C0F890C0C0F6000146
:101F100042F2A95241F6316300F1A00CC0F600056F
:101F2000C0F60006C0F60002C0F600038CE80E0002
:101F3000816C42F6714442F2B15EC0E9265641F628
:101F4000356641F62D65C0F60004C0F6000EC0F6F9
:101F50000006C0F60005C0F88C40C0F894E0C0F858
:101F6000AC60C0F8B05021B942F24D01C0F600019A
:101F70008164044688472046022180F83D100168AC
:101F800040F2FF740B68C4F2000442F60042A14222
:101F9000C4F2010214DCB1F1804F19D040F20046C6
:101FA000C4F20006B14213D0A14217DCB1F1804F58
:101FB0001CD040F20046C4F20006B14216D019E02F
:101FC000914205D040F60006C4F20006B142EBD1C2
:101FD000866823F070033343A142E7DD914205D0C8
:101FE00040F60006C4F20006B14203D1066923F4AC
:101FF00040733343856923F080034668C4682B43EC
:1020000091420B60CC628E6201D14369136301225D
:102010004A610B69DB0703D00B6923F001030B61F5
:1020200080F8462080F83E2080F83F2080F840204D
:1020300080F8412080F8422080F8432080F8442036
:1020400080F8452080F83D20002070BD006840F6F3
:102050000001C4F20001884218BF704780B582B009
:1020600041F21C00C4F202000168002241F00401A8
:1020700001600068002100F00400019001981E201A
:10208000FFF794F81E2002B0BDE88040FFF77CB84F
:1020900090F83D1001291CBF01207047022180F8F3
:1020A0003D10006840F2FF72C168C4F20002904225
:1020B00041F00101C16009DCB0F1804F12D040F263
:1020C0000041C4F2000188420CD012E042F6004107
:1020D000C4F20101884205D040F60001C4F20001BB
:1020E000884206D1816801F00701062904BF00205B
:1020F0007047016841F00101016000207047000055
:1021000090F83C20012A4FF002026CD080B580F894
:102110003D20D0F800C04FF67772DCF8083023EA93
:102120000202CCF808200B684F2B29DC1F2B45DD61
:10213000202B46D0302B44D0402B40F0AF80D1F83C
:1021400004E0C968DCF82030DCF8202022F001022D
:10215000CCF82020DCF8182022F0F00242EA01112D
:1021600023F00A0242EA0E02CCF81810CCF8202024
:10217000DCF8081041F0470121F0300128E000BFF1
:102180006F2B33DDB3F5005F74D0B3F5805F21D0E2
:10219000702B40F08380D1E901E3C968DCF80820A6
:1021A00043EA0E0322F47F4243EA01211143CCF8B3
:1021B0000810DCF8081041F0770109E00BB1102B92
:1021C0006CD1DCF8081021F07001194341F00701CF
:1021D000CCF808100022012180F83D10002180F881
:1021E0003C10BDE880401046704700BF502B21D006
:1021F000602B53D1D1F804E0C968DCF82030DCF85A
:10220000202022F01002CCF82020DCF8182022F444
:10221000704242EA013123F0A00242EA0E12CCF8E9
:102220001810CCF82020DCF8081041F0670121F0EC
:102230001001CDE7D1F804E0C968DCF82030DCF803
:10224000202022F00102CCF82020DCF8182022F017
:10225000F00242EA011123F00A0242EA0E02CCF82F
:102260001810CCF82020DCF8081041F0570121F0BC
:102270002001ADE7D1E901E3C968DCF8082043EAB1
:102280000E0322F47F4243EA01211143CCF80810E7
:10229000DCF8081041F480419AE700BF01229AE778
:1022A000002804BF012070472DE9F04F81B090F85D
:1022B0003D20002A4ED18846002180F83C1042F68D
:1022C0006541C0F6000142F6694242F66D4342F6AE
:1022D000714442F2AD5542F2B15642F20D7742F6E8
:1022E000D92C00F1800EC0F60002C0F60003C0F643
:1022F0000004C0F60005C0F60006C0F60007C0F6F0
:10230000000C8EE8FE1042F6DD21C0F6000142F21C
:10231000A95241F6316300F1A00CC0F60002C0F6EC
:1023200000038CE80E00016F41F6356741F62D661B
:10233000C0F60007C0F60006C0F8AC70C0F8B06088
:1023400021B942F28941C0F600010167044688477D
:1023500020464146022280F83D20026844F20707E9
:10236000936840F2FF75BB4393601468C4F20005A4
:1023700042F60043AA42C4F2010315DCB2F1804FD9
:102380001AD040F20047C4F20007BA4214D0AA4261
:1023900019DCB2F1804F1ED040F20047C4F20007B2
:1023A000BA4218D01CE000BF9A4205D040F60007A0
:1023B000C4F20007BA42EAD1876824F0700647EAFF
:1023C0000604AA42E5DD9A4205D040F60007C4F2B1
:1023D0000007BA4204D1076924F4407647EA0604AC
:1023E000856924F080074668C4682F439A421760C5
:1023F000D462966201D147691F634FF0010BC2F8A6
:1024000014B01769FF0703D0176927F00107176198
:1024100097689669D2F820E0D1E9004CD1E90258DA
:1024200044EA070A8F694FF6FF7926EA090645EA6A
:1024300007254FF6FC47BD43D1E9077346EA080676
:102440000C69354345EA07252EF02207496945EA1C
:10245000041447EA0C0744EA033347EA0111C2F8BF
:1024600008A09361116280F846B080F83EB080F811
:102470003FB080F842B080F843B080F83DB0002013
:1024800001B0BDE8F08F000080B586B00068002183
:10249000B0F1804FCDE904110391029102D006B052
:1024A00080BD00BF41F21800C4F20200426842F051
:1024B00001024260426802F001020192019A026840
:1024C00042F004020260006800F0040001900198EC
:1024D0000320CDE9020140F600000491C4F201009E
:1024E00002A9FEF739FB06B080BD000080B590F868
:1024F0003E2090F83F3090F842E090F843C0042925
:102500000AD0B9B9012A4FF0010208BFBEF1010F8C
:1025100034D0104680BD00BF012B4FF0010208BF30
:10252000BCF1010FF5D1022180F83F1080F8431073
:1025300000681EE0012A4FF0010208BF012BE8D11C
:10254000BEF1010FE5D1BCF1010FE2D1022280F80A
:102550003E2080F83F2080F8422080F8432091B14F
:102560000068016A21F001010162016A41F0010184
:10257000016210216FF0100209E000BF022180F813
:102580003E1080F84210006801216FF00102036ADA
:102590001A400262026A114301620168002241F09E
:1025A00001010160104680BD7047000070470000C7
:1025B0007047000070B504460068C5680669B10739
:1025C00016D515F0020113D06FF00201016101214F
:1025D00021778069800701D0902004E0D4F898101A
:1025E000204688479C202158204688470020207795
:1025F000700719D515F0040016D020686FF004019B
:10260000016102212177806910F4407F02D090207F
:1026100005E000BFD4F89810204688479C20215838
:102620002046884700202077300717D515F008008E
:1026300014D020686FF00801016104212177C0697E
:10264000800701D0902004E0D4F8981020468847F5
:102650009C2021582046884700202077F00619D575
:1026600015F0100016D020686FF0100101610821EC
:102670002177C06910F4407F02D0902005E000BFB0
:10268000D4F89810204688479C2021582046884737
:1026900000202077F00718BF15F0010002D13006A6
:1026A0000AD414E02068D4F880106FF001020261AF
:1026B0002046884730060AD515F0800007D02068EC
:1026C000D4F8B0106FF0800202612046884770068F
:1026D0000AD515F0400007D02068D4F888106FF0B4
:1026E0004002026120468847B00658BF70BD15F011
:1026F000200009D02168D4F8A8206FF020032046DC
:102700000B61BDE87040104770BD000070470000CD
:1027100090F83C30012B04BF022070474FEAB20210
:10272000032A00F2F1802DE9F043DFE802F003A56F
:102730003B7500BF036842F600461D6A1A6AC4F280
:10274000010622F001021A621A465C6852F818CF9C
:10275000B3428E68D1F800E025F0020545EA06058F
:102760000CD1CE68D1E9057824F4407425F00C052D
:1027700026F004063C43354344EA08042CF0730772
:1027800047EA0E075C609F614F6809695F631D62DD
:102790009F6947F008079F619F6927F004079F61C1
:1027A000A6E000BF036842F600461D6A1A6AC4F23A
:1027B000010622F480721A621A46D3F804C052F855
:1027C0001CEFB3428E680C6825F4007545EA0625B7
:1027D0000FD1CE68D1E90598360240F2FF4725F4C3
:1027E0004065BE4335432CF4405748EA090647EAA2
:1027F000061C2EF073072743C3F804C0DF614F683F
:102800000969DF631D62DF6947F00807DF61DF697F
:1028100027F00407DF616BE0036842F60047D3F856
:1028200020C01A6AC4F2010722F480521A621A46C2
:102830005C6852F81C5FD1F800E08E68BB4204D19E
:102840004F6924F4804444EA87142CF4005747EA83
:10285000063725F4E64646EA0E265C60DE614E68E1
:1028600009691E641F62DF6947F40067DF61DF6981
:1028700027F48067DF613AE0036842F600461D6A8C
:102880001A6AC4F2010622F010021A621A46D3F83C
:1028900004C052F8184FB3428E68D1F800E025F01A
:1028A000200545EA06150FD1CE68D1E905986FF0ED
:1028B000400725F0C00507EA061635432CF44067AB
:1028C00048EA090647EA860C24F4E64444EA0E275F
:1028D000C3F804C09F614F6809699F631D629F69C7
:1028E00047F400679F619F6927F480679F61090231
:1028F0001368194311600021BDE8F043002280F8FD
:102900003C200846704700BF0121002280F83C208F
:1029100008467047002804BF0120704770B590F842
:102920003D10002956D1002180F83C1042F6654147
:10293000C0F6000142F6694242F66D4342F2AD5CD8
:10294000C0F60002C0F60003C0F6000CC0F880100C
:1029500042F6DD2142F20D7542F6D926C0F88420F8
:10296000C0F88830C0F890C0C0F6000142F2A95209
:1029700041F6316300F1A00CC0F60005C0F6000678
:10298000C0F60002C0F600038CE80E00016E42F6AD
:10299000714442F2B15EC0E9265641F6356641F611
:1029A0002D65C0F60004C0F6000EC0F60006C0F6A5
:1029B0000005C0F88C40C0F894E0C0F8AC60C0F8E6
:1029C000B05021B942F6A921C0F6000101660446C3
:1029D00088472046022180F83D10016840F2FF74CC
:1029E0000B68C4F2000442F60042A142C4F20102A4
:1029F00014DCB1F1804F19D040F20046C4F2000659
:102A0000B14213D0A14217DCB1F1804F1CD040F28B
:102A10000046C4F20006B14216D019E0914205D03A
:102A200040F60006C4F20006B142EBD1866823F0FE
:102A300070033343A142E7DD914205D040F6000622
:102A4000C4F20006B14203D1066923F44073334354
:102A5000856923F080034668C4682B4391420B606C
:102A6000CC628E6201D14369136301224A610B6912
:102A7000DB0703D00B6923F001030B6180F84620CC
:102A800080F83E2080F83F2080F8402080F84120E8
:102A900080F8422080F8432080F8442080F84520C8
:102AA00080F83D20002070BD006840F20041C4F273
:102AB0000001884218BF704781B041F21C00C4F287
:102AC0000200016841F002010160006800F00200AC
:102AD0000090009801B070477047000070470000F8
:102AE000C1B1042908D0082914BF41224022825CC8
:102AF000012A05D016E000BF3F22825C012A11D1D5
:102B00000222082910D0042914BF80F8412080F83F
:102B10003F200BE090F83E20012A03D1022280F8EA
:102B20003E2003E00120704780F84020006801F05B
:102B30001F010122036A8A4023EA02010162036A3B
:102B400042F64441C4F201011A43A1F14403984200
:102B500002620FD040F2FF71C4F20001884213DC20
:102B6000B0F1804F1CD040F20041C4F20001884215
:102B700016D01CE00A6842F400420A6040F2FF717D
:102B8000C4F200018842EBDD42F60041C4F20101CB
:102B9000884205D040F60001C4F20001884206D107
:102BA000816801F00701062904BF00207047016811
:102BB00041F00101016000207047000080B502680B
:102BC00001F01F0C012303FA0CFE136A42F6004CBD
:102BD00023EA0E031362C4F2010C136A6245136206
:102BE00011D1DCF820C041F211131CEA030F0AD105
:102BF000D2F820C040F244431CEA030F03D1536CC7
:102C000023F400435364D2F820C041F211131CEAAC
:102C1000030F06D1D2F820C040F244431CEA030F50
:102C200014D0082918D004290AD000294FF0010136
:102C300014BF80F8411080F83E10002080BD00BF16
:102C4000012180F83F10002080BD00BF136823F0F1
:102C5000010313600829E6D1012180F8401000200B
:102C600080BD000070470000704700007047000002
:102C700070470000FEE700002DE9F04383B00446F2
:102C800000680F4601680A9D0B9E41F480719946C9
:102C90009046016020464FF0011100222B4600961D
:102CA00000F0ACF850B120680068C00544BF4FF494
:102CB00000702064032003B0BDE8F083206807F0B3
:102CC000FE0101610221C0F2010120462A4633467D
:102CD00000F07AF920B1012003B0BDE8F08300BF15
:102CE000002002902068324641690291806929469D
:102CF00002900298204600F0D3F958B1206C0428C5
:102D0000E9D12068016841F400710160012003B03D
:102D1000BDE8F0832068B9F1010F0AD04FEA18210D
:102D2000016120462946324600F0BAF90028E5D173
:102D300020685FFA88F10161002003B0BDE8F083EC
:102D400070B50368044653F8140F400711D40E46BB
:102D5000481C29D086BB00BF1868400527D4FEF761
:102D60000FF8236853F8140F400737D51868400749
:102D7000F2D5002070BD00BF18684007F9D418686C
:102D8000400514D418684007F3D4186840050ED4E1
:102D900018684007EDD41868400508D41868400743
:102DA0004FF0000048BF70BD18684005E4D56FF4CF
:102DB00080601860042012E0154603E053F8140FF9
:102DC0004007D6D418684005F1D4FDF7D9FF401B61
:102DD0002368B042F2D958694007EFD4202000217F
:102DE0002022216384F83D2084F83E10226C104399
:102DF0002064012084F83C1070BD00002DE9F041F2
:102E0000054600681E46144601F47F0201338FB266
:102E100042D0DDF81880B2F5803F40F087804069ED
:102E20003840C01BB0FA80F04009844240F0C880AE
:102E30004EB924E040693840C01BB0FA80F0400928
:102E4000844240F0BD80FDF79BFFA0EB080128689D
:102E5000B142EFD941693940C91BB1FA81F1490941
:102E60008C42E7D19BE000BF40693840C01BB0FAFC
:102E700080F0400984424FF0000040F0A280FDF74E
:102E80007FFF286841693940C91BB1FA81F14909BE
:102E90008C42E9D183E000BFB2F5803F24D100BF6E
:102EA00041693940C91BB1FA81F149098C4240F0AE
:102EB000878041693940C91BB1FA81F149098C42C7
:102EC00040F07E8041693940C91BB1FA81F149095E
:102ED0008C4275D141693940C91BB1FA81F1490968
:102EE0008C42DDD06CE000BF81693940C91BB1FA6A
:102EF00081F149098C4263D181693940C91BB1FA1A
:102F000081F149098C425BD181693940C91BB1FA11
:102F100081F149098C4253D181693940C91BB1FA09
:102F200081F149098C42DFD04AE000BF8069384016
:102F3000C01BB0FA80F04009844241D146B923E079
:102F400080693840C01BB0FA80F04009844237D114
:102F5000FDF716FFA0EB08012868B142F0D981699E
:102F60003940C91BB1FA81F149098C42E8D116E018
:102F700080693840C01BB0FA80F0400984424FF0AD
:102F8000000018BFBDE8F081FDF7FAFE28688169EE
:102F90003940C91BB1FA81F149098C42E8D10020BE
:102FA0002021286385F83D1085F83E00296C41F00A
:102FB0002001296485F83C000120BDE8F08100BFB4
:102FC0000020BDE8F0810000F0B581B00446006843
:102FD0001D4643698FB203EA0701B94202D10020BE
:102FE00001B0F0BD4169164601323CD0490512D40A
:102FF0007EB300BFFDF7C4FE411B2068B14203D978
:1030000041693940B9422BD141693940B942E6D0D2
:1030100041694905EED5016841F4007101606FF422
:1030200080614161042000212022216384F83D2039
:1030300084F83E10226C1043206484F83C10012078
:1030400001B0F0BD41693940B942C8D04169490574
:10305000E1D4FDF795FE206841693940B942F1D0CD
:103060002020E0E741694905D5D441693940B9429A
:10307000B5D041694905CED441693940B942AED095
:1030800041694905C7D441693940B942A7D041696E
:103090004905C0D441693940B942E3D19FE70000F6
:1030A00070B50368044653F8140F000611D40E4699
:1030B000481C29D086BB00BF1868400527D4FDF7FF
:1030C0005FFE236853F8140F000637D51868000612
:1030D000F2D5002070BD00BF18680006F9D418684A
:1030E000400514D418680006F3D4186840050ED4BF
:1030F00018680006EDD41868400508D41868000662
:103100004FF0000048BF70BD18684005E4D56FF46B
:1031100080601860042012E0154603E053F8140F95
:103120000006D6D418684005F1D4FDF729FE401BEF
:103130002368B042F2D958690006EFD4202000215C
:103140002022216384F83D2084F83E10226C104335
:103150002064012084F83C1070BD00002DE9F04788
:1031600086B0002741F21800CDE90477CDE9027757
:10317000C4F20200016840F6000A41F0200101603B
:103180000168C4F2010A01F020010191019901686E
:10319000002241F00401016001684FF0100901F0C4
:1031A000040101910199016841F008010160006882
:1031B000102100F00800019001985046FDF7DAFD5B
:1031C0000AF580642046012100224FF00108FDF736
:1031D000D1FD204610210122FDF7CCFD042002AED6
:1031E000CDE90207504631460497FDF7B5FC0225AC
:1031F00050463146CDE9029804970595FDF7ACFCA1
:103200001120CDE9020820463146CDE90475FDF7CD
:10321000A3FC06B0BDE8F08780B540F24C5045F203
:103220000041C2F20000C4F2000148F2A062002393
:103230004FF4804CC0F2010280E80E00C0E9033C6C
:10324000C0E90533C0E90733FDF7A0FD002808BF3A
:1032500080BDBDE88040FDF765BC000010B540F2C0
:10326000A05043F2000CC2F20000C4F2010C4FF473
:1032700082724FF4806300214FF4007E3824C0E94D
:1032800000C20A22C0E90231C0E90411C0E906E423
:10329000C0E90811C0E90A12FEF7B6FA002808BF13
:1032A00010BDBDE81040FDF73DBC000080B58CB0FE
:1032B00040F2F8500021C2F200004FF080424FF679
:1032C000FF73C0E90021C0E9021303220123CDE905
:1032D00000110161816103924FF0020CCDE90531CB
:1032E0000A22CDE9093103A9CDF810C0CDE9072C98
:1032F0000B92FEF7D5FF002818BFFDF713FC40F234
:10330000F850C2F200006946FEF796FD002818BF8B
:10331000FDF708FC0CB080BD70B590B040F20045E0
:1033200040F2AC60C4F200050021C2F200002F227E
:103330004FF4FA73CDE90811CDE90611CDE9041176
:10334000C0E90052C0E9021301618161FFF7E2FAAE
:10335000002818BFFDF7E6FB40F2AC60C2F20000A7
:1033600008A9FEF769FD002818BFFDF7DBFB602008
:1033700040F2AC6401900220C2F2000402900026E8
:1033800001A920460C2203960596FFF7C1F90028F3
:1033900018BFFDF7C7FB2068CDE90E66A8420D9661
:1033A0000C9601D010B070BD41F21800C4F20200BA
:1033B000016841F00801016000680CA900F00800F4
:1033C0000B900B980220CDE90C000F9005F584308E
:1033D000FDF7C2FB10B070BD80B586B040F26070E2
:1033E00040F600020021C2F20000C4F200022F23C6
:1033F00040F2E73C0591CDE90311CDE90011C0E9A8
:103400000023C0E9021C01618161FEF755FD00281F
:1034100018BFFDF787FB4FF48050029040F26070B8
:10342000C2F2000002A9FEF76BFE002818BFFDF7EC
:1034300079FB40F26070C2F200006946FEF7FCFCC6
:10344000002818BFFDF76EFB06B080BDFEE7000048
:10345000FEE70000704700002DE9F04381B0089CB2
:10346000984615460E468146FDF78AFC201A00EB69
:103470000804FDF785FC40F22001C2F20001096852
:10348000C1F3CB3161430091D9F800108A68324012
:10349000921BB2FA82F2520995423DD0074618F1CA
:1034A000010031D0FDF76CFCC01BA04238D200985F
:1034B00000990028A1F101010091D9F80010896854
:1034C00008BF044601EA0600801BB0FA80F04009FC
:1034D0008542E7D120E000BF88683040801BB0FA09
:1034E00080F04009854217D088683040801BB0FAD0
:1034F00080F0400985420FD088683040801BB0FAC8
:1035000080F04009854207D088683040801BB0FABF
:1035100080F040098542DFD1002001B0BDE8F08392
:10352000D9E900014268B1F5827F22F0E0024260F1
:103530000BD1D9F80810B1F5004F02D0B1F5806F6A
:1035400003D1016821F040010160D9F82810B1F5DC
:10355000005F07D1016821F400510160016841F466
:1035600000510160012089F85100002089F85000C5
:10357000032001B0BDE8F08370470000FDF79CBD5B
:103580007047000040F26070C2F20000FFF712B80E
:10359000FEE7000040F2F000C2F2000040F230010D
:1035A0000430C2F2000100F03FBB000040F2F00026
:1035B000C2F200000521C1607047000040F6000023
:1035C000C4F2010010210122FDF7D4BB10B582B076
:1035D00040F600040020C4F20104ADF806002046C5
:1035E00010210022FDF7C6FB40F2A050C2F20000FD
:1035F0000DF1060102223223FEF798F92046102130
:103600000122FDF7B7FB9DF8070041070CD49DF898
:10361000061040EA0120C00801F0DCFB4FF07A51AF
:1036200001F054FC02B010BD0020CBF6807002B057
:1036300010BD000010B540F2F004C2F20004A07802
:10364000002808BF00F06AFB2078012804D1201D63
:1036500000F014FA002020700120A07010BD0000BE
:1036600040F2F000C2F200000521816070470000C6
:1036700040F2F000C2F20000043000F0F9B900009E
:103680002DE9F04F81B0074640F2F850C2F2000039
:10369000006840F60041C4F20101D0F82480A1F591
:1036A00080600421FDF760FB40F2F00BC2F2000BDA
:1036B0009BF80190B0FA80F040F208064409B9F195
:1036C000010FC2F2000638464FF07C5116D101F0CE
:1036D000FDFBDBE909158246DBF80C60384601F09A
:1036E000ADFA032E40F20806C2F20006317818BF88
:1036F000504681F001012140009109E001F0E6FB14
:103700003178454681F0010121400091CBF82880B5
:10371000CBF82400A8EB0500347004B2201F10F190
:10372000080F4FF0000A05D8042CB8BF4FF0010A6B
:10373000CBF82880B9F1000F04D1FFF73FFF9BF8C9
:10374000010070B1DBF82C10384601F077FA4FF029
:103750007E51064601F0F7FA48B9FFF737FFCBF87C
:10376000140038464FF07C5101F0B0FB0646DBF800
:103770000C50CBF82C60032DCBF81C6018BFCBF895
:1037800010509BF8010001281AD1DBF80860012EC7
:1037900066D1DBF82480042C72DB4CF6CD41C3F6F5
:1037A000CC51404601F0BAFA002869D00620012128
:1037B000CBE902100BF1040000F010FAA1E000BF09
:1037C00000200121CBE902100020C4F27A30CBF8AE
:1037D000180040F20804C2F2000440F2AC60C2F2E9
:1037E0000000016840F6C312CA62C2604A220A643D
:1037F0004CF6CD41C3F6CC51CBF820100C21FFF78D
:103800006FF9DBF80800022840F0A880DBE9050129
:1038100001F099FA0246002840F60040C4F2010087
:103820004FF0010118BF0122FDF7A4FA00206073D8
:1038300044F65410C4F24E70C4F8090044F6200057
:10384000C4F24510C4F8050045F25340C5F24F00DC
:10385000C4F801009BF80100002840F09F80ADE013
:10386000052E23D1032C21DD09210522DBF81800C8
:10387000CBE902214FF07E5101F0E0F9A7E700BF4C
:103880004CF6CD41C3F6CC51404601F047FA002832
:1038900018BF01201AEA000F1ED007200121CBE932
:1038A00002100BF1040000F0A3F92AE0052E08BF76
:1038B0009AF0010030D00099052E08BF91F0010068
:1038C00044D0B01EB0FA80F040090840012834D13D
:1038D0000B200121B4E000BF49F69A11C3F69961AB
:1038E000404601F01BFA002818BF01200099014250
:1038F0001ED008200121CBE902100BF1040000F0DA
:103900007FF9DBF80C0040F208040328C2F200043F
:103910007FF463AF75E700BF0A210522DBF81800CA
:10392000CBE902210021CBF6807101F087F94EE747
:10393000052D08BF012E00F08180032040F208040D
:10394000CBF80C00C2F200045BE700BF40F20804B1
:1039500003200121C2F20004CBE9021040F600402E
:10396000C4F2010001210022FDF704FA4720A4F867
:103970000D0045F24140C4F64960C4F8090042F226
:103980005400C4F24850C4F8050045F25340C5F253
:103990004120C4F801009BF8010078B1DBF8301039
:1039A000384601F04BF94CF6CD41C3F64C61054663
:1039B00001F0C9F940B901208BF8000038464FF0FA
:1039C0007C5101F083FA0546DBF81400CBF8305047
:1039D00001F008F902460B460BF134001AA1FCF77E
:1039E00017FCDBF8180001F0FDF802460B460BF15E
:1039F00048001AA1FCF70CFCDBF8205000212846F7
:103A000001F09AF998B92846394601F02BFB0021BC
:103A1000CBF82000002401F081F940B940F2AC60FD
:103A2000C2F200000C21CBF82040FFF7C7F80120BC
:103A30008BF8010001B0BDE8F08F00BF0520022126
:103A4000CBE90210C5E600BF437572722E205465A3
:103A50006D703A20252E3066204300005461726755
:103A60002E2054656D703A20252E306620430000CC
:103A70000168C968002918BF016070472DE9F0414D
:103A800082B00446002000F03BF90020002100F045
:103A9000BBFA45F66C112068C0F60001D1E900863A
:103AA0008F6800680125414632463B46009500F08C
:103AB00071FC206881680129C0F28B80006970B9AF
:103AC00002200E2100F0A0FA45F6FE100125C0F6F6
:103AD0000000414632463B46009500F05BFC0C205E
:103AE0000E2100F091FA20680125406841460068E7
:103AF00032463B46009500F04DFC20688168022963
:103B000067DB006901280ED102201A2100F07CFA3F
:103B100045F6FE100125C0F60000414632463B4600
:103B2000009500F037FC0C201A2100F06DFA206897
:103B3000012540684146C06832463B46009500F08A
:103B400029FC20688168032943DB006902280ED123
:103B50000220262100F058FA45F6FE100125C0F695
:103B60000000414632463B46009500F013FC0C2015
:103B7000262100F049FA2068012540684146806905
:103B800032463B46009500F005FC20688168042918
:103B90001FDB006903280ED10220322100F034FA25
:103BA00045F6FE100125C0F60000414632463B4670
:103BB000009500F0EFFB0C20322100F025FA206880
:103BC000012540684146406A32463B46009500F078
:103BD000E1FB02B0BDE8F04100F01EBA0068826867
:103BE0000169013A9142BCBF013101617047000097
:103BF000006801690129A4BF013901617047000013
:103C000001680A694B6802EB420203EB82035A68BF
:103C100022B102600020D1601061704798680028CE
:103C200008BF70470047000000220160CA6070476B
:103C300041F26F20C3F68320FFF722BDFFF7FABCE5
:103C400090B0FDF747FA00240120CDE90B44CDE9FF
:103C5000094406900A904FF480104FF480310225F9
:103C60000F9006A8CDE90714CDE90D51FDF7CCFB67
:103C700020B1EFF3108072B6FEE700BF0F20CDE950
:103C800001054FF48060CDE9040001A801210394EF
:103C9000FDF7C8FA20B1EFF3108072B6FEE700BF5F
:103CA000FFF75CFAFFF7B8FAFFF700FBFFF794FBAA
:103CB000FFF7D4FAFFF730FB00F00CF840F60044B1
:103CC000C4F20104FFF7BAFF204610210022FDF7DD
:103CD00051F8F7E780B540F2607043F63141C2F227
:103CE0000000C0F60001C0F88010FEF7D1F940F2E4
:103CF000F850C2F200003C21BDE88040FEF7F6BB60
:103D000080B50246002840F24C10C2F200004FF489
:103D1000806118BFFF22FCF716FB80BD2DE9F0473C
:103D200084B06420FCF704FF40F24C5440F2E808F1
:103D3000AE20C2F20004C2F200084FF000098DF874
:103D40000F004FF0FF3701250DF10F0620467821B7
:103D50000022012388F80090CDE900650297FDF765
:103D6000C7F84FF0200A20467821002201238DF861
:103D70000FA0CDE900650297FDF7BAF8204678213B
:103D8000002201238DF80F90CDE900650297FDF721
:103D9000AFF8B0208DF80F002046782100220123D3
:103DA000CDE900650297FDF7A3F8C8208DF80F0054
:103DB0002046782100220123CDE900650297FDF716
:103DC00097F820467821002201238DF80F90CDE945
:103DD00000650297FDF78CF810208DF80F00204643
:103DE000782100220123CDE900650297FDF780F8D4
:103DF00040208DF80F002046782100220123CDE9D4
:103E000000650297FDF774F881208DF80F002046B9
:103E1000782100220123CDE900650297FDF768F8BB
:103E2000FF208DF80F002046782100220123CDE9E4
:103E300000650297FDF75CF8A1208DF80F00204681
:103E4000782100220123CDE900650297FDF750F8A3
:103E5000A6208DF80F002046782100220123CDE90D
:103E600000650297FDF744F8A8208DF80F00204662
:103E7000782100220123CDE900650297FDF738F88B
:103E80003F208DF80F002046782100220123CDE944
:103E900000650297FDF72CF8A4208DF80F0020464E
:103EA000782100220123CDE900650297FDF720F873
:103EB000D3208DF80F002046782100220123CDE980
:103EC00000650297FDF714F82046782100220123AF
:103ED0008DF80F90CDE900650297FDF709F8D52020
:103EE0008DF80F002046782100220123CDE90065DE
:103EF0000297FCF7FDFFF0208DF80F002046782197
:103F000000220123CDE900650297FCF7F1FFD920DB
:103F10008DF80F002046782100220123CDE90065AD
:103F20000297FCF7E5FF22208DF80F00204678214C
:103F300000220123CDE900650297FCF7D9FFDA20C2
:103F40008DF80F002046782100220123CDE900657D
:103F50000297FCF7CDFF12208DF80F002046782144
:103F600000220123CDE900650297FCF7C1FFDB20A9
:103F70008DF80F002046782100220123CDE900654D
:103F80000297FCF7B5FF20467821002201238DF827
:103F90000FA0CDE900650297FCF7AAFF8D208DF8F0
:103FA0000F002046782100220123CDE90065029709
:103FB000FCF79EFF14208DF80F0020467821002288
:103FC0000123CDE900650297FCF792FFAF208DF841
:103FD0000F00204678210022012388F80050CDE907
:103FE00000650297FCF784FF40F24C10C2F200001B
:103FF0004FF48061FCF7AFF900F00EF8C8F80290BA
:1040000004B0BDE8F087000040F2E802C2F200020E
:1040100050809180704700002DE9F04F85B040F24C
:104020004C1640F24C540025C2F200064FF0FF3708
:104030004FF00108C2F200044FF010090DF1130A0D
:104040004FF0800B45F0B0008DF811000DF111001C
:10405000CDE9000820467821002201230297FCF7D1
:1040600047FF02208DF812000DF11200CDE9000883
:1040700020467821002201230297FCF739FF2046D1
:104080007821002201238DF81390CDE900A8029732
:10409000FCF72EFF2046782140220123CDE9006B5A
:1040A0000297FCF725FF0135082D06F18006C9D1DE
:1040B00005B0BDE8F08F00002DE9F04F89B0A0F108
:1040C0007F0717F15F0F14D340F2E807C2F2000731
:1040D000002B0EBFCBB2034413F8203C7C88E618BB
:1040E000802E06D8090ABF88CDB2E9194029089761
:1040F00004D9002009B0BDE8F08F00BF002D019663
:104100000593039000F03C810598002800F0388169
:10411000039840F24C1AA0F12001694302EB4100E0
:1041200004900598002700F0030100F0FC02601CD9
:104130000290A01CC2F2000A06910090079508E0C8
:1041400003EA0C000AF80100079D0137AF4200F0B6
:10415000178108983918CBB23F2BF5D8049801F095
:10416000070330F817B0012000FA03F9059889F029
:10417000FF0C04284FF4607000EA01184FF0000EA5
:1041800022D206980028DFD00BFA0EF10EEB0400C5
:104190000D04C3B24FEA006540F19A80002D00F192
:1041A000A58043EA080312981AF80350012840F04A
:1041B000998045EA090097E003EA0C000AF801003B
:1041C0000EF1040E7245DCD00BFA0EF104EB0E0377
:1041D0000E04DDB24FEA03660CD5002E17D445EA73
:1041E000080512981AF8056001280CD146EA09065C
:1041F0000BE000BF002E0AD445EA080512981AF811
:1042000005600028F2D006EA0C060AF805605E1C7C
:10421000F5B248044FEA06660CD5002E17D445EADD
:10422000080512981AF8056001280CD146EA090021
:104230000BE000BF002E0AD445EA080512981AF8D0
:1042400005600028F2D006EA0C000AF80500981C68
:104250008E04C5B24FEA00660CD5002E17D445EA8D
:10426000080512981AF8056001280CD146EA0900E1
:104270000BE000BF002E0AD445EA080512981AF890
:1042800005600028F2D006EA0C000AF80500D81CE8
:10429000C904C3B24FEA00610CD500293FF590AFC5
:1042A00043EA080112981AF8013001287FF484AF1C
:1042B0000BE000BF00293FF583AF43EA08011298E5
:1042C0001AF8013000287FF477AF43EA090075E758
:1042D000002D0BD443EA080312981AF80350002863
:1042E0003FF467AF05EA0C000AF8030006980128BE
:1042F0003FF42AAF02984D047044C3B24FEA006500
:104300000CD5002D17D443EA080312981AF803506D
:1043100001280CD145EA09000BE000BF002D0AD4AA
:1043200043EA080312981AF803500028F2D005EA6D
:104330000C000AF80300069802283FF405AF009825
:1043400089047044C3B24FEA00610BD500293FF5E0
:10435000FBAE43EA080112981AF8013001287FF4F5
:10436000EFAE0AE000293FF5EFAE43EA08011298EC
:104370001AF8013000287FF4E3AE43EA0900E1E6D1
:1043800040F2E8000199C2F200004180039809B0B0
:10439000BDE8F08F2DE9F04182B01C460378DBB117
:1043A000DDF8208015460E46471C00BFD8B23146C6
:1043B0002A462346CDF80080FFF77EFE17F8011C41
:1043C000884204D117F8013B002BEFD100210846A9
:1043D00002B0BDE8F08100BF0021084602B0BDE890
:1043E000F0815FEA400C08BF91F0000F4FEA8C2388
:1043F0004FEAC12243EA51514FEA1C5018BF00F561
:10440000F0404FEA300018BF41F000415FEA6C5CB9
:1044100000F02980BCF1FF3F08BF40F080407047AA
:10442000130C06BF12044FF0100C4FF0000C130ECB
:1044300004BF12020CF1080C130F04BF12010CF19F
:10444000040C930F04BF92000CF1020CD30F04BFB5
:1044500052000CF1010C11464FF00002A0F11F00B8
:10446000A0EB0C00704711F0004F08BF704731F00F
:1044700000413FF4D5AF0B0C06BF09044FF0100C00
:104480004FF0000C0B0E04BF09020CF1080C0B0FCF
:1044900004BF09010CF1040C8B0F04BF89000CF15F
:1044A000020CCB0F04BF49000CF1010CCCF120032E
:1044B00022FA03F341EA030102FA0CF2A0EB0C002A
:1044C00000F101007047000023F07F4720F07F4C8F
:1044D00080EA030000F00040ACEB070303F57C53D7
:1044E00003F1FF032DE9804909B44FEA144324EA9C
:1044F00003484FEA154B25EA0B4E0FF2042606EB54
:1045000013273E7803FB0667C7F5000707FB06F68F
:104510004FEAD64606F102064FEA543707FB066C0F
:10452000CCF1005C4FEA1C472CEA074C0CFB06F56B
:1045300007FB06F404EB15464FEA961649085FEAB6
:10454000320234BF00204FF000404FEAD13706FB63
:1045500007FC4FEA1C4C0CFB0BF7D21B03FB0CF7C0
:1045600061EB07010CFB0EF7B0EB074072EB174253
:104570000CFB08F734BFA2EB0742B2EB074261EB3A
:1045800017414FEA0C444FEA910706FB07FC4FEA3C
:104590001C4C0CFB0BF7B0EBC74072EB573203FB24
:1045A0000CF734BFA2EBC742B2EBC74261EB573105
:1045B0000CFB0EF7B0EBC70072EB57720CFB08F761
:1045C00034BFA2EBC702B2EBC70261EB57714FEAEF
:1045D000816141EA92114FEA826242EA90124FEA07
:1045E000806004EBCC04039F4FEAD13706FB07FC45
:1045F0004FEA1C4C0CFB0BF7D21B03FB0CF761EBD7
:1046000007010CFB0EF7B0EB074072EB17420CFBF7
:1046100008F734BFA2EB0742B2EB074261EB174148
:104620004FEA8C5504EB9C244FEA910706FB07FCEC
:104630004FEA1C4C0CFB0BF7B0EBC74072EB573248
:1046400003FB0CF734BFA2EBC742B2EBC74261EBEE
:1046500057310CFB0EF7B0EBC70072EB57720CFB37
:1046600008F734BFA2EBC702B2EBC70261EB577188
:104670004FEA816141EA92114FEA826242EA901266
:104680004FEA806015EB4C2544F100044FEAD13726
:1046900006FB07FC4FEA1C4C0CFB0BF7D21B03FB81
:1046A0000CF761EB07010CFB0EF7B0EB074072EB68
:1046B00017420CFB08F734BFA2EB0742B2EB0742EC
:1046C00061EB17414FEA813141EA92414FEA823270
:1046D00042EA90424FEA80304FEA0C7615EB1C1507
:1046E00044F1000448EA03434EEA0B484FF0000E41
:1046F000B2EB080C71EB030724BF624639464EEB60
:104700000E0E4FF0000B0018524149414BEB0B0BC2
:10471000B2EB080C71EB03077BF1000B24BF624680
:1047200039464EEB0E0E4FF0000B00185241494136
:104730004BEB0B0BB2EB080C71EB03077BF1000B9F
:1047400024BF624639464EEB0E0E51EA020718BFEF
:1047500046F0010616EB0E7655F1000254F1000109
:1047600003D5BDE88901BDE80088BDE88901BDE841
:104770000048B619524141EB0101A3F10103704712
:1047800080807F7E7D7C7B7A79787776767574738E
:10479000727171706F6E6E6D6C6C6B6A6A6968684D
:1047A000676666656464636362616160605F5F5EE3
:1047B0005E5D5D5C5C5B5B5A5A5959585857575659
:1047C00056555555545453535252525151505050BE
:1047D0004F4F4F4E4E4D4D4D4C4C4C4B4B4B4A4A10
:1047E0004A49494948484847474747464646454554
:1047F000454444444443434343424242424141418D
:104800009C46002B30D477002BD04FEA37071CB5DD
:1048100003B44FF010004FF01001BAF1000F06D0B2
:10482000BCF1000FDCBF40F0080040F008014FF081
:1048300000000FBCBDE810400BF1010BBBF1010FF4
:1048400008BF5FEA170722BF12F1010211F101014F
:104850004FF0004143F1000300F0004043EA000044
:104860007047F9D35708D0E746EA06464FEA16469E
:1048700013F1400F1FDD13F1200FDFBF16430A466F
:10488000002120335B42BED0C3F1200746EA064632
:104890004FEA164602FA07F746EA070622FA03F23B
:1048A000C3F1200701FA07F742EA070221FA03F1F0
:1048B0004FF00003A7E746EA020646EA06464FEA3B
:1048C000164646EA0106BCBF46EA0646360C4FF0DD
:1048D00000034FF000024FF0000194E72DE9804CF7
:1048E00070B49A46934691E8380007C831EA400C04
:1048F00048BF34EA430C03D5FFF7E6FDFFF780FF1E
:10490000F0BCBDE8008C2DE9804C70B49A4693460B
:1049100091E8380007C810F0804F08BF13F0804FAF
:1049200003D100F005F8FFF76BFFF0BCBDE8008C89
:1049300020F07F4723F07F4C80EA030000F0004026
:1049400007EB0C03A3F57C53A3F1FE0392F0000FD9
:1049500000F0B38095F0000F00F077802DE9014959
:104960004FEA114021EA00484FEA144624EA06477C
:1049700000FB06FC08FB06F607FB08F818EB0648E8
:104980004CEB164C00FB07F718EB07484CEB1740B5
:104990004FEA124B22EA0B4E4FEA154625EA06472C
:1049A0000BFB06FC0EFB06F607FB0EFE1EEB064E8F
:1049B0004CEB164C0BFB07F71EEB074E4CEB174B63
:1049C00018EB0B0840F1000018EB0E0B58EB000839
:1049D00040F100008F1A4FF000014FF000063CBF7D
:1049E000C943661B14BFB5EB040C00213CBFC9438F
:1049F000F61B4FEA174427EA04454FEA1C472CEA06
:104A0000074C04FB076205FB07F70CFB05F616EBEA
:104A1000074642EB174204FB0CFC16EB0C4642EB3C
:104A20001C421BEB060658EB020241414EEA8E0E79
:104A300046EA9E0601D5BDE80189B619524141EB0F
:104A40000101A3F10103BDE801894FEA144524EAFD
:104A500005464FEA114721EA074C05FB07F406FB20
:104A600007F70CFB06F111EB074144EB174405FB7C
:104A70000CFC11EB0C4144EB1C444FEA124722EAB8
:104A8000074C05FB07F206FB07F70CFB06F616EBD7
:104A9000074642EB174205FB0CFC16EB0C4642EBBB
:104AA0001C456A1854F1000148BF7047B6195241BD
:104AB00041EB0101A3F10103704795F0000F37D0DE
:104AC0004FEA114221EA02464FEA144724EA074C12
:104AD00002FB07F106FB07F70CFB06F414EB074497
:104AE00041EB174102FB0CFC14EB0C4441EB1C4165
:104AF0004FEA154725EA074C02FB07F506FB07F7C7
:104B00000CFB06F616EB074645EB174502FB0CFCC3
:104B100016EB0C4645EB1C42121951F1000148BF3F
:104B20007047B619524141EB0101A3F101037047EF
:104B30004FEA144524EA05464FEA114721EA074C9B
:104B400005FB07F106FB07F70CFB06F212EB074229
:104B500041EB174105FB0CFC12EB0C4251EB1C41E5
:104B60004FF0000648BF7047921841EB0101A3F1D6
:104B700001037047490050EAC12018BF04204A0DC4
:104B800018BF40F0010040F2FF72B2EB515F08BF66
:104B900040F00200012808BF0520704730380A287D
:104BA00001D20120704700207047000010B5002995
:104BB0000AD00878002807D005487844FBF766FF3C
:104BC000002801D0002010BD0248784410BD00002C
:104BD000660E00005E0E00000808A0F500114FEA06
:104BE0003101704743004FEAD30C4FEA3C0C43407D
:104BF0001FBF40070CF1605113F0FE4F70471CF0CF
:104C0000006F03D10CF00041002070470CF000430E
:104C100043EA507040EACC0010B500F0D8F900BF6C
:104C2000000000924FEA0001FFF7D6BF4FF00041AD
:104C3000A1F500214FF000007047000090EA010F3D
:104C400048BF81F0004100F11482421A3CBF801A33
:104C500089184FEAD052A2EBD1534FF07F4C1CEA97
:104C6000410F18BF9CEA026F00F03B804FF0004CF0
:104C70004CEA00204CEA012121FA03FC10EB0C0C59
:104C80001ED202F1FF325FEA1C2040EBC25038BF57
:104C900070471CF07F0F4FEA400C18BFBCF17F4FEC
:104CA00038BF7047C3F12003994008BF20F00100CE
:104CB000BCF17F4F38BF7047A0F1C04000F0CDB9C4
:104CC0004FEA3C00000A40EBC25028BF1CF0FF0F27
:104CD0004FEA400CE6D018BFBCF17F4F38BF704799
:104CE000EAE79CEA026F05D010EA5C0F08BF00F00B
:104CF0000040704710B500F06AF900BF64FBBE3E8B
:104D000010B500F033F80CBF0120002010BD10B525
:104D100000F02CF814BF0120002010BD10B500F0E9
:104D20006DF88CBF0120002010BD10B500F066F8B2
:104D30002CBF0120002010BD10B500F093F894BFE7
:104D40000120002010BD10B500F08CF834BF012008
:104D5000002010BD401058BFC0F14040491058BF5E
:104D6000C1F140418142EFF30080704750EA010CED
:104D700000F113801CF5000F58BFBCF5000F01D4E3
:104D80008842704707D710F5000F58BF11F5000F84
:104D900015D488427047894270471CF5000F04D52E
:104DA000BCF5000FF7D5814270474FF0807C1CEBBB
:104DB000400F38BF1CEB410F01D28142704710B544
:104DC00000F005F9922449004FF000504FF0805157
:104DD000FFF7C0BFB0FA80F310FA03F2C3F19D03EE
:104DE0000AD0D90501EB1220530638BF704700F1F5
:104DF000010008BF20F001007047000050EA010CDC
:104E000000F113801CF5000F58BFBCF5000F01D452
:104E10008842704707D710F5000F58BF11F5000FF3
:104E200015D488427047894270471CF5000F04D59D
:104E3000BCF5000FF7D5814270474FF0807C1CEB2A
:104E4000400F38BF1CEB410F01D28142704710B5B3
:104E500000F0BDF8922449004FF080504FF000510F
:104E6000FFF778BF50EA010C00F113801CF5000F2A
:104E700058BFBCF5000F01D48842704707D710F522
:104E8000000F58BF11F5000F15D4884270478942B2
:104E900070471CF5000F04D5BCF5000FF7D5814213
:104EA00070474FF0807C1CEB400F38BF1CEB410F6C
:104EB00001D28142704710B500F089F89224490070
:104EC0004FF000504FF08051FFF744BF4FF47F0C7C
:104ED0001CEAD0121EBF1CEAD11392EA0C0F93EA0F
:104EE0000C0F00F0478090EA010F48BF42F4807237
:104EF0004FF0004C4CEA00204CEA012102EB030287
:104F0000A0FB0113A2F50002002918BF43F0010322
:104F10005B0028BF4FEA330342EB22425FEA132CC7
:104F20004CEBC2502EBFBCEB436FB2F57C0F704709
:104F30004FEA036CBCF1004F08BF20F00100B2F54E
:104F40007C0F38BF70470BD582F0FF0212F5803F0F
:104F5000C8BF704700F1C040D8BF00F000407047A4
:104F600000F5000C5FEA4C0C48BF7047B0F1C04040
:104F700000F073B80CEAD11390EA010F48BF42F475
:104F80008072624538BF634504D280EA010000F0B8
:104F90000040704710B500F01AF800BF8900013ECC
:104FA00000F007B800F009B85FEA410C5FEA1C6C3A
:104FB00008D080EA010000F050B85FEA400C5FEAD8
:104FC0001C6CF6D14FF00040A0F5800070470EF148
:104FD000020E2EF0030E5EF8044B244204D44FEA76
:104FE0004102B2F17F4F11D84FEA4003B3F17F4F36
:104FF0000CD80ED14FEAD07C0CEB4C0C0CF1020C0F
:10500000B2F17F4F08BF4CEBD17C04E04FF0080CAD
:1050100001E04FEAD17C0CEB4C0324FA03F404F0DA
:105020000704B4F1040C06D20EEB840CBDE810406A
:105030004CF0010C6047DFE80CF0070802024FF06B
:105040000040A0F5800010BD0846420018BFD2F114
:10505000807288BF00F0004010BDFF2141EAD050AF
:10506000C005704790EA010F48BF81F000413FF54D
:10507000ECAD421A04D882F00042A0EB02001144C9
:105080004FEAD052A2EBD1534FF07F4C1CEA410FB4
:1050900018BF9CEA026F4AD04FF0004C4CEA002047
:1050A0004CEA012121FA03FCB0EB0C0C0FD412F0F6
:1050B000FE0F36D05FEA4C001DD5001240EBC25007
:1050C00038BF70471CF03F0F18BF70470BE05FEA16
:1050D0001C20A2F1010240EBC25038BF70471CF007
:1050E0007F0F18BF7047C3F12003994014BF401EC3
:1050F00020F0010070474FEA1223800808BF704774
:10510000B0FA80FCA2EB0C02CCF1280C60FA0CF097
:1051100093EA122F04BF00EBC25070474FEAC370EE
:105120007047130A5FEADC1008BF7047F6E79CEA95
:10513000026F04D010EA5C0F08BF0020704710B562
:10514000FFF745FF40DFF63E81F000407047FBF778
:105150001BBA000002400000000000A00000000098
:1051600005400000000000C8000000000C400000E6
:105170000000409C00000000194000000020BCBE60
:105180000000000034400000BFC91B8E0000000476
:10519000B5400000504BCFD06607E2CF01000000C1
:1051A0006C4100003E8251AADFEEA73401000000EE
:1051B000D9420000DCB5A0E23A301F97FFFFFFFFA5
:1051C000B4450000FD25A0C8E9A3C14FFFFFFFFFC4
:1051D000FF3F00000000008000000000FF3F0000D3
:1051E000000000800000000000000000000000003F
:1051F000010203040607080900000000010203047D
:10520000000000000000000000000000000000009E
:10521000000000000010001000100010001000102E
:1052200000000010000000000028002800280000F6
:105230000000000000000000000000000024002426
:10524000007C00240048007C00480048000000006A
:105250000038005400500038001400540054003846
:1052600000100000002000540058003000280054B6
:1052700000140008000000000010002800280010A2
:105280000034004800480034000000000010001006
:1052900000100000000000000000000000000000FE
:1052A0000008001000200020002000200020002026
:1052B0000010000800200010000800080008000886
:1052C000000800080010002000100038001000281E
:1052D00000000000000000000000000000000000CE
:1052E00000100010007C0010001000000000000002
:1052F000000000000000000000000000000000109E
:105300000010001000000000000000000000003845
:10531000000000000000000000000000000000008D
:10532000000000000000001000000000000800085D
:1053300000100010001000100020002000000000ED
:105340000038004400440054004400440044003845
:10535000000000000010003000500010001000108D
:105360000010001000000000003800440044000459
:10537000000800100020007C0000000000380044FD
:10538000000400180004000400440038000000007D
:1053900000080018002800280048007C00080008C9
:1053A00000000000007C0040004000780004000481
:1053B000004400380000000000380044004000783D
:1053C000004400440044003800000000007C000459
:1053D0000008001000100020002000200000000045
:1053E00000380044004400380044004400440038C1
:1053F000000000000038004400440044003C000469
:105400000044003800000000000000000010000010
:10541000000000000000001000000000000000007C
:10542000000000100000000000000010001000103C
:1054300000000000000C003000400030000C0000B4
:1054400000000000000000000000007C0000007C64
:1054500000000000000000000000000000600018D4
:105460000004001800600000000000000038004444
:1054700000040008001000100000001000000000F0
:1054800000380044004C0054005C004000400038EC
:105490000000000000100028002800280028007CE0
:1054A00000440044000000000078004400440078FC
:1054B000004400440044007800000000003800442C
:1054C0000040004000400040004400380000000060
:1054D000007000480044004400440044004800704C
:1054E00000000000007C00400040007C00400040C4
:1054F0000040007C00000000007C0040004000787C
:10550000004000400040004000000000003800441F
:1055100000400040005C00440044003800000000EF
:10552000004400440044007C004400440044004423
:1055300000000000003800100010001000100010E3
:105540000010003800000000000400040004000403
:10555000000400040044003800000000004400483B
:105560000050006000500048004800440000000067
:105570000040004000400040004000400040007CEF
:10558000000000000044006C006C00540044004423
:105590000044004400000000004400640064005423
:1055A0000054004C004C004400000000003800444F
:1055B000004400440044004400440038000000005F
:1055C000007800440044004400780040004000405F
:1055D000000000000038004400440044004400443F
:1055E00000540038000400000078004400440044E7
:1055F00000780048004800440000000000380044E3
:1056000000400030000800040044003800000000A2
:10561000007C00100010001000100010001000109E
:1056200000000000004400440044004400440044E2
:1056300000440038000000000044004400440028FA
:105640000028002800100010000000000044004462
:10565000005400540054006C002800280000000092
:1056600000440028002800100010002800280044F2
:105670000000000000440044002800280010001032
:105680000010001000000000007C00040008001062
:10569000001000200040007C0000000000180010F6
:1056A0000010001000100010001000100010001872
:1056B000002000200010001000100010000800085A
:1056C000000000000030001000100010001000105A
:1056D00000100010001000300010002800280044C6
:1056E00000000000000000000000000000000000BA
:1056F000000000000000000000000000000000FEAC
:105700000020001000000000000000000000000069
:10571000000000000000000000380044003C00448D
:10572000004C0034000000000040004000580064BD
:105730000044004400640058000000000000000025
:1057400000380044004000400044003800000000E1
:10575000000400040034004C00440044004C0034B9
:10576000000000000000000000380044007C004001
:105770000044003800000000000C0010007C001005
:1057800000100010001000100000000000000000D9
:105790000034004C00440044004C00340004007805
:1057A00000400040005800640044004400440044AD
:1057B0000000000000100000007000100010001039
:1057C0000010001000000000001000000070001029
:1057D0000010001000100010001000E00040004019
:1057E00000480050006000500048004400000000E5
:1057F00000700010001000100010001000100010C9
:105800000000000000000000007800540054005424
:105810000054005400000000000000000058006424
:105820000044004400440044000000000000000068
:1058300000380044004400440044003800000000E8
:105840000000000000580064004400440064005858
:1058500000400040000000000034004C00440044C0
:10586000004C0034000400040000000000580064F4
:105870000040004000400040000000000000000028
:1058800000380044003000080044003800000000E8
:1058900000200020007800200020002000200018B8
:1058A00000000000000000000044004400440044E8
:1058B000004C0034000000000000000000440044E0
:1058C0000028002800280010000000000000000050
:1058D000005400540054006C002800280000000010
:1058E00000000000004400280010001000280044C0
:1058F00000000000000000000044004400280028D0
:10590000001000100010006000000000007C000883
:10591000001000200040007C000000000018001073
:1059200000100010002000200010001000100018CF
:1059300000100010001000100010001000100010E7
:1059400000100010003000100010001000080008C7
:105950000010001000100030000000000000007473
:10596000004C00000000000000000000070A0000DA
:1059700000520008000000000102020304050607AF
:1059800008090A0B0C0D0E0F1010536E50622028E0
:105990004C656164656429005341433330352028E8
:1059A0004C6561644672656529004D414E55414C18
:1059B000204D4F4445005341433330352050524F22
:1059C00046494C450053454C4543542050524F46A0
:1059D000494C4500536E50622050524F46494C4549
:1059E000004D41494E204D454E550053746172742F
:1059F0002048656174696E67004261636B003E0018
:105A0000405A0008000000208800000050010008F3
:105A1000C85A000888000020900D0000700100089E
:105A20001C00000043000000F8FFFFFF0C00000016
:105A30000E0000000F0000002E00000059DBFFFFE9
:105A4000010000001000000001535441525420484E
:105A5000454154494E47000000000000000000008E
:105A600000127A00EB5900087400002000000000CA
:105A7000E15900082400002001000000000000009F
:105A8000000000000900002000000000AD35000803
:105A900038010020000000006136000824010020C9
:105AA0000000000000000000F9590008000000009C
:105AB00071360008AA5900084400002004000000C4
:085AC0000000000000000000DE
:04000005080000ED02
:00000001FF
